{
  "contractName": "Icu",
  "abi": [
    {
      "anonymous": false,
      "inputs": [
        {
          "indexed": false,
          "name": "from",
          "type": "address"
        },
        {
          "indexed": true,
          "name": "enterpriseId",
          "type": "uint256"
        },
        {
          "indexed": true,
          "name": "name",
          "type": "bytes32"
        },
        {
          "indexed": false,
          "name": "hash",
          "type": "bytes32"
        }
      ],
      "name": "logEnterprise",
      "type": "event",
      "signature": "0x3edf6caca4ece5fadb1fbae8b9b041b20da53367ea7753e5a704c9a5d024b175"
    },
    {
      "constant": false,
      "inputs": [
        {
          "name": "name",
          "type": "bytes32"
        },
        {
          "name": "hash",
          "type": "bytes32"
        }
      ],
      "name": "saveEnterprise",
      "outputs": [],
      "payable": false,
      "stateMutability": "nonpayable",
      "type": "function",
      "signature": "0xefce3e4b"
    }
  ],
  "bytecode": "0x608060405234801561001057600080fd5b5061017b806100206000396000f3fe608060405260043610610041576000357c0100000000000000000000000000000000000000000000000000000000900463ffffffff168063efce3e4b14610046575b600080fd5b34801561005257600080fd5b506100896004803603604081101561006957600080fd5b81019080803590602001909291908035906020019092919050505061008b565b005b600080815480929190600101919050555060408051908101604052808381526020018281525060016000805481526020019081526020016000206000820151816000015560208201518160010155905050816000547f3edf6caca4ece5fadb1fbae8b9b041b20da53367ea7753e5a704c9a5d024b1753384604051808373ffffffffffffffffffffffffffffffffffffffff1673ffffffffffffffffffffffffffffffffffffffff1681526020018281526020019250505060405180910390a3505056fea165627a7a7230582065d818d83bec5592596aaa9a1b647b9e7b08de35786cbb53646b07242b0953470029",
  "source": "pragma solidity >=0.5.0 <0.7.0;\ncontract Icu{\n    /*\n    * query key enterprise hash(data will be saved in ipfs) with name,color\n    * \n    */\n    struct Enterprise{\n        bytes32  name; \n        bytes32 hash;\n    }\n    //检索(name)通过日记结构来进行\n    event logEnterprise(address from,uint256 indexed enterpriseId, bytes32 indexed name,bytes32 hash);\n    uint256 enterprisesCount;\n    mapping(uint256=>Enterprise) enterprises;\n\n    modifier out(uint256 entId){\n        require(enterprisesCount > entId && entId > 0,\"empty enterpriseId\");\n        _;\n    }\n    function saveEnterprise(bytes32 name,bytes32 hash) public{\n        enterprisesCount++;\n        enterprises[enterprisesCount] = Enterprise(name,hash);\n        emit logEnterprise(msg.sender,enterprisesCount,name,hash);\n    } \n}\n/*\n*事件，日志这两个概念。事件发生后被记录到区块链上成为了日志。总的来说，事件强调功能，一种行为；日志强调存储，内容。\n*事件是以太坊EVM提供的一种日志基础设施。事件可以用来做操作记录，存储为日志。也可以用来实现一些交互功能，比如通知UI，返回函数调用结果等。\n*当定义的事件触发时，我们可以将事件存储到EVM的交易日志中，日志是区块链中的一种特殊数据结构。日志与合约关联，与合约的存储合并存入区块链中。\n*只要某个区块可以访问，其相关的日志就可以访问。但在合约中，我们不能直接访问日志和事件数据（即便是创建日志的合约）\n*链接：https://www.jianshu.com/p/131c07c6f72f\n*/",
  "sourcePath": "/Users/ysh/solidity/nns_icu/src/dapp/smartContract/contracts/Icu.sol",
  "compiler": {
    "name": "solc",
    "version": "0.5.0+commit.1d4f565a.Emscripten.clang"
  },
  "schemaVersion": "3.0.6",
  "updatedAt": "2019-04-25T01:23:45.263Z",
  "devdoc": {
    "methods": {}
  },
  "userdoc": {
    "methods": {}
  }
}