{
  "contractName": "Icu",
  "abi": [
    {
      "anonymous": false,
      "inputs": [
        {
          "indexed": false,
          "name": "from",
          "type": "address"
        },
        {
          "indexed": true,
          "name": "enterpriseId",
          "type": "uint256"
        },
        {
          "indexed": true,
          "name": "name",
          "type": "bytes32"
        },
        {
          "indexed": false,
          "name": "hashStr",
          "type": "bytes32"
        }
      ],
      "name": "logEnterprise",
      "type": "event",
      "signature": "0x3edf6caca4ece5fadb1fbae8b9b041b20da53367ea7753e5a704c9a5d024b175"
    },
    {
      "constant": false,
      "inputs": [
        {
          "name": "name",
          "type": "bytes32"
        },
        {
          "name": "hashStr",
          "type": "bytes32"
        }
      ],
      "name": "saveEnterprise",
      "outputs": [],
      "payable": false,
      "stateMutability": "nonpayable",
      "type": "function",
      "signature": "0xefce3e4b"
    },
    {
      "constant": true,
      "inputs": [
        {
          "name": "entId",
          "type": "uint256"
        }
      ],
      "name": "getEnterprise",
      "outputs": [
        {
          "name": "name",
          "type": "bytes32"
        },
        {
          "name": "hashStr",
          "type": "bytes32"
        }
      ],
      "payable": false,
      "stateMutability": "view",
      "type": "function",
      "signature": "0x0b68a9d3"
    }
  ],
  "bytecode": "0x608060405234801561001057600080fd5b50610292806100206000396000f3fe60806040526004361061004c576000357c0100000000000000000000000000000000000000000000000000000000900463ffffffff1680630b68a9d314610051578063efce3e4b146100a7575b600080fd5b34801561005d57600080fd5b5061008a6004803603602081101561007457600080fd5b81019080803590602001909291905050506100ec565b604051808381526020018281526020019250505060405180910390f35b3480156100b357600080fd5b506100ea600480360360408110156100ca57600080fd5b8101908080359060200190929190803590602001909291905050506101a2565b005b6000808280600054101580156101025750600081115b1515610176576040517f08c379a000000000000000000000000000000000000000000000000000000000815260040180806020018281038252601b8152602001807f656e74657270726973654964206d75737420626520656d70747920000000000081525060200191505060405180910390fd5b600060016000868152602001908152602001600020905080600001549350806001015492505050915091565b600080815480929190600101919050555060408051908101604052808381526020018281525060016000805481526020019081526020016000206000820151816000015560208201518160010155905050816000547f3edf6caca4ece5fadb1fbae8b9b041b20da53367ea7753e5a704c9a5d024b1753384604051808373ffffffffffffffffffffffffffffffffffffffff1673ffffffffffffffffffffffffffffffffffffffff1681526020018281526020019250505060405180910390a3505056fea165627a7a72305820174cdec095a5884d20ef443af0254e0b6977235a8064ea0928ffa9d9941492240029",
  "source": "pragma solidity >=0.5.0 <0.7.0;\ncontract Icu{\n    /*\n    * query key enterprise hash(data will be saved in ipfs) with name,color\n    * \n    */\n    struct Enterprise{\n        bytes32  name; \n        bytes32 hashStr;\n    }\n    //检索(name)通过日记结构来进行\n    event logEnterprise(address from,uint256 indexed enterpriseId, bytes32 indexed name,bytes32 hashStr);\n    uint256 enterprisesCount;\n    mapping(uint256=>Enterprise) enterprises;\n\n    modifier out(uint256 entId){\n        require(enterprisesCount >= entId && entId > 0,\"enterpriseId must be empty \");\n        _;\n    }\n    function saveEnterprise(bytes32 name,bytes32 hashStr) public{\n        enterprisesCount++;\n        enterprises[enterprisesCount] = Enterprise(name,hashStr);\n        emit logEnterprise(msg.sender,enterprisesCount,name,hashStr);\n    } \n\n    function getEnterprise(uint256 entId) public view out(entId) returns(bytes32 name,bytes32 hashStr) {\n        Enterprise storage ent = enterprises[entId];\n        name = ent.name;\n        hashStr = ent.hashStr;\n        \n        \n        //return (ent.name,ent.hashStr);\n    }\n}\n/*\n*事件，日志这两个概念。事件发生后被记录到区块链上成为了日志。总的来说，事件强调功能，一种行为；日志强调存储，内容。\n*事件是以太坊EVM提供的一种日志基础设施。事件可以用来做操作记录，存储为日志。也可以用来实现一些交互功能，比如通知UI，返回函数调用结果等。\n*当定义的事件触发时，我们可以将事件存储到EVM的交易日志中，日志是区块链中的一种特殊数据结构。日志与合约关联，与合约的存储合并存入区块链中。\n*只要某个区块可以访问，其相关的日志就可以访问。但在合约中，我们不能直接访问日志和事件数据（即便是创建日志的合约）\n*链接：https://www.jianshu.com/p/131c07c6f72f\n*/",
  "sourcePath": "/Users/yangminghai/git_workplace/solidity/nns_icu/src/dapp/smartContract/contracts/Icu.sol",
  "compiler": {
    "name": "solc",
    "version": "0.5.0+commit.1d4f565a.Emscripten.clang"
  },
  "schemaVersion": "3.0.6",
  "updatedAt": "2019-04-28T14:21:53.815Z",
  "devdoc": {
    "methods": {}
  },
  "userdoc": {
    "methods": {}
  }
}